{
  "_format": "hh-sol-artifact-1",
  "contractName": "KBMarket",
  "sourceName": "contracts/KBMarket.sol",
  "abi": [
    {
      "inputs": [],
      "stateMutability": "nonpayable",
      "type": "constructor"
    },
    {
      "anonymous": false,
      "inputs": [
        {
          "indexed": true,
          "internalType": "uint256",
          "name": "itemId",
          "type": "uint256"
        },
        {
          "indexed": true,
          "internalType": "address",
          "name": "nftContract",
          "type": "address"
        },
        {
          "indexed": true,
          "internalType": "uint256",
          "name": "tokenId",
          "type": "uint256"
        },
        {
          "indexed": false,
          "internalType": "address",
          "name": "seller",
          "type": "address"
        },
        {
          "indexed": false,
          "internalType": "address",
          "name": "owner",
          "type": "address"
        },
        {
          "indexed": false,
          "internalType": "uint256",
          "name": "price",
          "type": "uint256"
        },
        {
          "indexed": false,
          "internalType": "bool",
          "name": "sold",
          "type": "bool"
        }
      ],
      "name": "MarketTokenMinted",
      "type": "event"
    },
    {
      "inputs": [
        {
          "internalType": "address",
          "name": "nftContract",
          "type": "address"
        },
        {
          "internalType": "uint256",
          "name": "itemId",
          "type": "uint256"
        }
      ],
      "name": "createMarketSale",
      "outputs": [],
      "stateMutability": "payable",
      "type": "function"
    },
    {
      "inputs": [],
      "name": "fetchCreatedNFTs",
      "outputs": [
        {
          "components": [
            {
              "internalType": "uint256",
              "name": "itemId",
              "type": "uint256"
            },
            {
              "internalType": "address",
              "name": "nftContract",
              "type": "address"
            },
            {
              "internalType": "uint256",
              "name": "tokenId",
              "type": "uint256"
            },
            {
              "internalType": "address payable",
              "name": "seller",
              "type": "address"
            },
            {
              "internalType": "address payable",
              "name": "owner",
              "type": "address"
            },
            {
              "internalType": "uint256",
              "name": "price",
              "type": "uint256"
            },
            {
              "internalType": "bool",
              "name": "sold",
              "type": "bool"
            }
          ],
          "internalType": "struct KBMarket.MarketToken[]",
          "name": "",
          "type": "tuple[]"
        }
      ],
      "stateMutability": "view",
      "type": "function"
    },
    {
      "inputs": [],
      "name": "fetchMarketTokens",
      "outputs": [
        {
          "components": [
            {
              "internalType": "uint256",
              "name": "itemId",
              "type": "uint256"
            },
            {
              "internalType": "address",
              "name": "nftContract",
              "type": "address"
            },
            {
              "internalType": "uint256",
              "name": "tokenId",
              "type": "uint256"
            },
            {
              "internalType": "address payable",
              "name": "seller",
              "type": "address"
            },
            {
              "internalType": "address payable",
              "name": "owner",
              "type": "address"
            },
            {
              "internalType": "uint256",
              "name": "price",
              "type": "uint256"
            },
            {
              "internalType": "bool",
              "name": "sold",
              "type": "bool"
            }
          ],
          "internalType": "struct KBMarket.MarketToken[]",
          "name": "",
          "type": "tuple[]"
        }
      ],
      "stateMutability": "view",
      "type": "function"
    },
    {
      "inputs": [],
      "name": "fetchMyNFTs",
      "outputs": [
        {
          "components": [
            {
              "internalType": "uint256",
              "name": "itemId",
              "type": "uint256"
            },
            {
              "internalType": "address",
              "name": "nftContract",
              "type": "address"
            },
            {
              "internalType": "uint256",
              "name": "tokenId",
              "type": "uint256"
            },
            {
              "internalType": "address payable",
              "name": "seller",
              "type": "address"
            },
            {
              "internalType": "address payable",
              "name": "owner",
              "type": "address"
            },
            {
              "internalType": "uint256",
              "name": "price",
              "type": "uint256"
            },
            {
              "internalType": "bool",
              "name": "sold",
              "type": "bool"
            }
          ],
          "internalType": "struct KBMarket.MarketToken[]",
          "name": "",
          "type": "tuple[]"
        }
      ],
      "stateMutability": "view",
      "type": "function"
    },
    {
      "inputs": [],
      "name": "getListingPrice",
      "outputs": [
        {
          "internalType": "uint256",
          "name": "",
          "type": "uint256"
        }
      ],
      "stateMutability": "view",
      "type": "function"
    },
    {
      "inputs": [
        {
          "internalType": "address",
          "name": "nftContract",
          "type": "address"
        },
        {
          "internalType": "uint256",
          "name": "tokenId",
          "type": "uint256"
        },
        {
          "internalType": "uint256",
          "name": "price",
          "type": "uint256"
        }
      ],
      "name": "makeMarketItem",
      "outputs": [],
      "stateMutability": "payable",
      "type": "function"
    }
  ],
  "bytecode": "0x6080604052669fdf42f6e4800060045534801561001b57600080fd5b506001600055600380546001600160a01b03191633179055610d02806100426000396000f3fe6080604052600436106100555760003560e01c806312e855851461005a57806318474cea1461007d578063202e37401461009f5780637a060f56146100b4578063c23b139e146100c9578063c69bdf75146100dc575b600080fd5b34801561006657600080fd5b506004546040519081526020015b60405180910390f35b34801561008957600080fd5b506100926100f1565b6040516100749190610bd8565b3480156100ab57600080fd5b506100926102f2565b6100c76100c2366004610ba6565b6104ea565b005b6100c76100d7366004610b7d565b610775565b3480156100e857600080fd5b50610092610986565b606060006100fe60015490565b905060008060005b8381101561016157336005600061011e846001610c6c565b81526020810191909152604001600020600301546001600160a01b0316141561014f5761014c600184610c6c565b92505b8061015981610c9b565b915050610106565b5060008267ffffffffffffffff81111561018b57634e487b7160e01b600052604160045260246000fd5b6040519080825280602002602001820160405280156101c457816020015b6101b1610b25565b8152602001906001900390816101a95790505b50905060005b848110156102e95733600560006101e2846001610c6c565b81526020810191909152604001600020600301546001600160a01b031614156102d7576000600581610215846001610c6c565b81526020808201929092526040908101600090812054808252600580855291839020835160e0810185528154815260018201546001600160a01b0390811696820196909652600282015494810194909452600381015485166060850152600481015490941660808401529083015460a0830152600683015460ff16151560c083015285519093508590879081106102bc57634e487b7160e01b600052603260045260246000fd5b60209081029190910101526102d2600186610c6c565b945050505b806102e181610c9b565b9150506101ca565b50949350505050565b606060006102ff60015490565b905060008060005b8381101561036257336005600061031f846001610c6c565b81526020810191909152604001600020600401546001600160a01b031614156103505761034d600184610c6c565b92505b8061035a81610c9b565b915050610307565b5060008267ffffffffffffffff81111561038c57634e487b7160e01b600052604160045260246000fd5b6040519080825280602002602001820160405280156103c557816020015b6103b2610b25565b8152602001906001900390816103aa5790505b50905060005b848110156102e95733600560006103e3846001610c6c565b81526020810191909152604001600020600401546001600160a01b031614156104d8576000600581610416846001610c6c565b81526020808201929092526040908101600090812054808252600580855291839020835160e0810185528154815260018201546001600160a01b0390811696820196909652600282015494810194909452600381015485166060850152600481015490941660808401529083015460a0830152600683015460ff16151560c083015285519093508590879081106104bd57634e487b7160e01b600052603260045260246000fd5b60209081029190910101526104d3600186610c6c565b945050505b806104e281610c9b565b9150506103cb565b600260005414156105425760405162461bcd60e51b815260206004820152601f60248201527f5265656e7472616e637947756172643a207265656e7472616e742063616c6c0060448201526064015b60405180910390fd5b60026000558061058b5760405162461bcd60e51b815260206004820152601460248201527350726963652063616e6e6f74206265205a65726f60601b6044820152606401610539565b60045434146105dc5760405162461bcd60e51b815260206004820152601d60248201527f4c697374696e6720707269636520646f6573206e6f74206d617463682e0000006044820152606401610539565b6105ea600180546001019055565b60006105f560015490565b6040805160e0810182528281526001600160a01b0387811660208084018281528486018a8152336060870181815260006080890181815260a08a018e815260c08b018381528d8452600598899052928c90209a518b55955160018b018054918b166001600160a01b0319928316179055945160028b0155915160038a018054918a1691861691909117905590516004808a01805492909916919094161790965591519286019290925592516006909401805494151560ff199095169490941790935592516323b872dd60e01b81529182015230602482015260448101869052919250906323b872dd90606401600060405180830381600087803b1580156106fb57600080fd5b505af115801561070f573d6000803e3d6000fd5b505060408051338152600060208201819052818301879052606082015290518693506001600160a01b038816925084917fcd9b0dfebab7db4dbe70606f69fadc8e987e7c80a65410f0bb5ae8bd72dabba7919081900360800190a4505060016000555050565b600260005414156107c85760405162461bcd60e51b815260206004820152601f60248201527f5265656e7472616e637947756172643a207265656e7472616e742063616c6c006044820152606401610539565b60026000818155828152600560208190526040909120908101549101543482146108515760405162461bcd60e51b815260206004820152603460248201527f506c65617365207375626d6974207468652061736b696e672070726963652069604482015273371037b93232b9103a379031b7b73a34b73ab29760611b6064820152608401610539565b6000838152600560205260408082206003015490516001600160a01b03909116913480156108fc02929091818181858888f19350505050158015610899573d6000803e3d6000fd5b506040516323b872dd60e01b8152306004820152336024820152604481018290526001600160a01b038516906323b872dd90606401600060405180830381600087803b1580156108e857600080fd5b505af11580156108fc573d6000803e3d6000fd5b50505060008481526005602052604090206004810180546001600160a01b03191633179055600601805460ff191660011790555061093e600280546001019055565b6003546004546040516001600160a01b039092169181156108fc0291906000818181858888f1935050505015801561097a573d6000803e3d6000fd5b50506001600055505050565b6060600061099360015490565b905060006109a060025490565b6001546109ad9190610c84565b90506000808267ffffffffffffffff8111156109d957634e487b7160e01b600052604160045260246000fd5b604051908082528060200260200182016040528015610a1257816020015b6109ff610b25565b8152602001906001900390816109f75790505b50905060005b848110156102e9576000600581610a30846001610c6c565b81526020810191909152604001600020600401546001600160a01b03161415610b13576000610a60826001610c6c565b600081815260056020818152604092839020835160e0810185528154815260018201546001600160a01b0390811693820193909352600282015494810194909452600381015482166060850152600481015490911660808401529081015460a0830152600681015460ff16151560c0830152855192935091859087908110610af857634e487b7160e01b600052603260045260246000fd5b6020908102919091010152610b0e600186610c6c565b945050505b80610b1d81610c9b565b915050610a18565b6040805160e081018252600080825260208201819052918101829052606081018290526080810182905260a0810182905260c081019190915290565b80356001600160a01b0381168114610b7857600080fd5b919050565b60008060408385031215610b8f578182fd5b610b9883610b61565b946020939093013593505050565b600080600060608486031215610bba578081fd5b610bc384610b61565b95602085013595506040909401359392505050565b602080825282518282018190526000919060409081850190868401855b82811015610c5f57815180518552868101516001600160a01b039081168887015286820151878701526060808301518216908701526080808301519091169086015260a0808201519086015260c09081015115159085015260e09093019290850190600101610bf5565b5091979650505050505050565b60008219821115610c7f57610c7f610cb6565b500190565b600082821015610c9657610c96610cb6565b500390565b6000600019821415610caf57610caf610cb6565b5060010190565b634e487b7160e01b600052601160045260246000fdfea2646970667358221220221563330e6791bebbcefb04269e3b95026e7290f60e81c230ab27e94798fe5464736f6c63430008040033",
  "linkReferences": {},
  "deployedLinkReferences": {}
}